{
  "contractName": "EnergyTradingPlatform",
  "abi": [
    {
      "anonymous": false,
      "inputs": [
        {
          "indexed": false,
          "internalType": "uint256",
          "name": "id",
          "type": "uint256"
        },
        {
          "indexed": false,
          "internalType": "address",
          "name": "seller",
          "type": "address"
        },
        {
          "indexed": false,
          "internalType": "uint256",
          "name": "energyAmount",
          "type": "uint256"
        },
        {
          "indexed": false,
          "internalType": "uint256",
          "name": "pricePerUnit",
          "type": "uint256"
        }
      ],
      "name": "ListingCreated",
      "type": "event"
    },
    {
      "anonymous": false,
      "inputs": [
        {
          "indexed": false,
          "internalType": "uint256",
          "name": "id",
          "type": "uint256"
        },
        {
          "indexed": false,
          "internalType": "address",
          "name": "buyer",
          "type": "address"
        },
        {
          "indexed": false,
          "internalType": "uint256",
          "name": "totalAmount",
          "type": "uint256"
        }
      ],
      "name": "ListingPurchased",
      "type": "event"
    },
    {
      "inputs": [],
      "name": "listingCounter",
      "outputs": [
        {
          "internalType": "uint256",
          "name": "",
          "type": "uint256"
        }
      ],
      "stateMutability": "view",
      "type": "function",
      "constant": true
    },
    {
      "inputs": [
        {
          "internalType": "uint256",
          "name": "",
          "type": "uint256"
        }
      ],
      "name": "listings",
      "outputs": [
        {
          "internalType": "uint256",
          "name": "id",
          "type": "uint256"
        },
        {
          "internalType": "address payable",
          "name": "seller",
          "type": "address"
        },
        {
          "internalType": "uint256",
          "name": "energyAmount",
          "type": "uint256"
        },
        {
          "internalType": "uint256",
          "name": "pricePerUnit",
          "type": "uint256"
        },
        {
          "internalType": "bool",
          "name": "isActive",
          "type": "bool"
        }
      ],
      "stateMutability": "view",
      "type": "function",
      "constant": true
    },
    {
      "inputs": [
        {
          "internalType": "uint256",
          "name": "energyAmount",
          "type": "uint256"
        },
        {
          "internalType": "uint256",
          "name": "pricePerUnit",
          "type": "uint256"
        }
      ],
      "name": "createListing",
      "outputs": [],
      "stateMutability": "nonpayable",
      "type": "function"
    },
    {
      "inputs": [
        {
          "internalType": "uint256",
          "name": "listingId",
          "type": "uint256"
        }
      ],
      "name": "purchaseListing",
      "outputs": [],
      "stateMutability": "payable",
      "type": "function",
      "payable": true
    }
  ],
  "bytecode": "0x608060405234801561001057600080fd5b5061044d806100206000396000f3fe60806040526004361061003f5760003560e01c8063169d5a7d146100445780636c2c9c7d14610059578063a79123a914610082578063de74e57b146100a2575b600080fd5b61005761005236600461036e565b61012a565b005b34801561006557600080fd5b5061006f60005481565b6040519081526020015b60405180910390f35b34801561008e57600080fd5b5061005761009d366004610387565b61028e565b3480156100ae57600080fd5b506100f86100bd36600461036e565b6001602081905260009182526040909120805491810154600282015460038301546004909301546001600160a01b0390921692909160ff1685565b604080519586526001600160a01b0390941660208601529284019190915260608301521515608082015260a001610079565b6000818152600160205260409020600481015460ff166101895760405162461bcd60e51b81526020600482015260156024820152744c697374696e67206973206e6f742061637469766560581b60448201526064015b60405180910390fd5b6000670de0b6b3a7640000826003015483600201546101a891906103bf565b6101b291906103dc565b90508034146102035760405162461bcd60e51b815260206004820152601860248201527f496e636f7272656374207061796d656e7420616d6f756e7400000000000000006044820152606401610180565b60018201546040516001600160a01b03909116903480156108fc02916000818181858888f1935050505015801561023e573d6000803e3d6000fd5b5060048201805460ff1916905560408051848152336020820152348183015290517f2d59a19899f1b1165cfd3b030c8d0a2b924a1ca783b1f91efd7b6aebe9c87a609181900360600190a1505050565b60008054908061029d836103fe565b90915550506040805160a0810182526000805480835233602080850182815285870189815260608088018a815260016080808b01828152988a528187528b8a209a518b559451908a0180546001600160a01b0319166001600160a01b03909216919091179055915160028901559051600388015593516004909601805460ff19169615159690961790955592548551908152928301529281018590529182018390527f12dc294b81a709d694b1337a350a12a00076c19a77a25aab67a5f0c07e0f164d910160405180910390a15050565b60006020828403121561038057600080fd5b5035919050565b6000806040838503121561039a57600080fd5b50508035926020909101359150565b634e487b7160e01b600052601160045260246000fd5b80820281158282048414176103d6576103d66103a9565b92915050565b6000826103f957634e487b7160e01b600052601260045260246000fd5b500490565b600060018201610410576104106103a9565b506001019056fea264697066735822122095c502336fbb01adeb466e3d5cb007ca2bedf42fb3de564f86031b7aecd9db7364736f6c63430008130033",
  "immutableReferences": {},
  "source": "// SPDX-License-Identifier: MIT\r\npragma solidity ^0.8.0;\r\n\r\ncontract EnergyTradingPlatform {\r\n    struct Listing {\r\n        uint256 id;\r\n        address payable seller;\r\n        uint256 energyAmount;     // In wei\r\n        uint256 pricePerUnit;     // In wei\r\n        bool isActive;\r\n    }\r\n\r\n    uint256 public listingCounter;\r\n    mapping(uint256 => Listing) public listings;\r\n\r\n    event ListingCreated(uint256 id, address seller, uint256 energyAmount, uint256 pricePerUnit);\r\n    event ListingPurchased(uint256 id, address buyer, uint256 totalAmount);\r\n\r\n    function createListing(uint256 energyAmount, uint256 pricePerUnit) external {\r\n        listingCounter++;\r\n        listings[listingCounter] = Listing({\r\n            id: listingCounter,\r\n            seller: payable(msg.sender),\r\n            energyAmount: energyAmount,\r\n            pricePerUnit: pricePerUnit,\r\n            isActive: true\r\n        });\r\n\r\n        emit ListingCreated(listingCounter, msg.sender, energyAmount, pricePerUnit);\r\n    }\r\n\r\n    function purchaseListing(uint256 listingId) external payable {\r\n        Listing storage listing = listings[listingId];\r\n        require(listing.isActive, \"Listing is not active\");\r\n\r\n        uint256 totalCost = (listing.energyAmount * listing.pricePerUnit) / 1 ether;\r\n        require(msg.value == totalCost, \"Incorrect payment amount\");\r\n\r\n        listing.seller.transfer(msg.value);\r\n        listing.isActive = false;\r\n\r\n        emit ListingPurchased(listingId, msg.sender, msg.value);\r\n    }\r\n}",
  "sourcePath": "C:\\Col_projects\\blockTruffle\\contracts\\EnergyTradingPlatform.sol",
  "compiler": {
    "name": "solc",
    "version": "0.8.19+commit.7dd6d404.Emscripten.clang"
  },
  "schemaVersion": "3.4.16",
  "updatedAt": "2025-04-16T06:52:23.987Z",
  "networkType": "ethereum",
  "devdoc": {
    "kind": "dev",
    "methods": {},
    "version": 1
  },
  "userdoc": {
    "kind": "user",
    "methods": {},
    "version": 1
  }
}