{
  "contractName": "EnergyTradingPlatform",
  "abi": [
    {
      "inputs": [
        {
          "internalType": "address",
          "name": "_energyToken",
          "type": "address"
        },
        {
          "internalType": "address",
          "name": "_userRegistry",
          "type": "address"
        }
      ],
      "stateMutability": "nonpayable",
      "type": "constructor"
    },
    {
      "anonymous": false,
      "inputs": [
        {
          "indexed": true,
          "internalType": "uint256",
          "name": "bidId",
          "type": "uint256"
        },
        {
          "indexed": true,
          "internalType": "uint256",
          "name": "listingId",
          "type": "uint256"
        }
      ],
      "name": "BidAccepted",
      "type": "event"
    },
    {
      "anonymous": false,
      "inputs": [
        {
          "indexed": true,
          "internalType": "uint256",
          "name": "bidId",
          "type": "uint256"
        },
        {
          "indexed": true,
          "internalType": "uint256",
          "name": "listingId",
          "type": "uint256"
        },
        {
          "indexed": true,
          "internalType": "address",
          "name": "buyer",
          "type": "address"
        },
        {
          "indexed": false,
          "internalType": "uint256",
          "name": "bidAmount",
          "type": "uint256"
        }
      ],
      "name": "BidPlaced",
      "type": "event"
    },
    {
      "anonymous": false,
      "inputs": [
        {
          "indexed": true,
          "internalType": "uint256",
          "name": "listingId",
          "type": "uint256"
        }
      ],
      "name": "ListingCancelled",
      "type": "event"
    },
    {
      "anonymous": false,
      "inputs": [
        {
          "indexed": true,
          "internalType": "uint256",
          "name": "listingId",
          "type": "uint256"
        },
        {
          "indexed": true,
          "internalType": "address",
          "name": "seller",
          "type": "address"
        },
        {
          "indexed": false,
          "internalType": "uint256",
          "name": "energyAmount",
          "type": "uint256"
        },
        {
          "indexed": false,
          "internalType": "uint256",
          "name": "pricePerUnit",
          "type": "uint256"
        }
      ],
      "name": "ListingCreated",
      "type": "event"
    },
    {
      "inputs": [],
      "name": "bidCounter",
      "outputs": [
        {
          "internalType": "uint256",
          "name": "",
          "type": "uint256"
        }
      ],
      "stateMutability": "view",
      "type": "function",
      "constant": true
    },
    {
      "inputs": [
        {
          "internalType": "uint256",
          "name": "",
          "type": "uint256"
        }
      ],
      "name": "bids",
      "outputs": [
        {
          "internalType": "uint256",
          "name": "id",
          "type": "uint256"
        },
        {
          "internalType": "address",
          "name": "buyer",
          "type": "address"
        },
        {
          "internalType": "uint256",
          "name": "listingId",
          "type": "uint256"
        },
        {
          "internalType": "uint256",
          "name": "bidAmount",
          "type": "uint256"
        },
        {
          "internalType": "uint256",
          "name": "timestamp",
          "type": "uint256"
        },
        {
          "internalType": "bool",
          "name": "isAccepted",
          "type": "bool"
        }
      ],
      "stateMutability": "view",
      "type": "function",
      "constant": true
    },
    {
      "inputs": [],
      "name": "energyToken",
      "outputs": [
        {
          "internalType": "contract EnergyToken",
          "name": "",
          "type": "address"
        }
      ],
      "stateMutability": "view",
      "type": "function",
      "constant": true
    },
    {
      "inputs": [
        {
          "internalType": "uint256",
          "name": "",
          "type": "uint256"
        },
        {
          "internalType": "uint256",
          "name": "",
          "type": "uint256"
        }
      ],
      "name": "listingBids",
      "outputs": [
        {
          "internalType": "uint256",
          "name": "",
          "type": "uint256"
        }
      ],
      "stateMutability": "view",
      "type": "function",
      "constant": true
    },
    {
      "inputs": [],
      "name": "listingCounter",
      "outputs": [
        {
          "internalType": "uint256",
          "name": "",
          "type": "uint256"
        }
      ],
      "stateMutability": "view",
      "type": "function",
      "constant": true
    },
    {
      "inputs": [
        {
          "internalType": "uint256",
          "name": "",
          "type": "uint256"
        }
      ],
      "name": "listings",
      "outputs": [
        {
          "internalType": "uint256",
          "name": "id",
          "type": "uint256"
        },
        {
          "internalType": "address",
          "name": "seller",
          "type": "address"
        },
        {
          "internalType": "uint256",
          "name": "energyAmount",
          "type": "uint256"
        },
        {
          "internalType": "uint256",
          "name": "pricePerUnit",
          "type": "uint256"
        },
        {
          "internalType": "bool",
          "name": "isActive",
          "type": "bool"
        },
        {
          "internalType": "uint256",
          "name": "timestamp",
          "type": "uint256"
        }
      ],
      "stateMutability": "view",
      "type": "function",
      "constant": true
    },
    {
      "inputs": [],
      "name": "userRegistry",
      "outputs": [
        {
          "internalType": "contract UserRegistry",
          "name": "",
          "type": "address"
        }
      ],
      "stateMutability": "view",
      "type": "function",
      "constant": true
    },
    {
      "inputs": [
        {
          "internalType": "uint256",
          "name": "_energyAmount",
          "type": "uint256"
        },
        {
          "internalType": "uint256",
          "name": "_pricePerUnit",
          "type": "uint256"
        }
      ],
      "name": "createListing",
      "outputs": [],
      "stateMutability": "nonpayable",
      "type": "function"
    },
    {
      "inputs": [
        {
          "internalType": "uint256",
          "name": "_listingId",
          "type": "uint256"
        }
      ],
      "name": "placeBid",
      "outputs": [],
      "stateMutability": "payable",
      "type": "function",
      "payable": true
    },
    {
      "inputs": [
        {
          "internalType": "uint256",
          "name": "_bidId",
          "type": "uint256"
        }
      ],
      "name": "acceptBid",
      "outputs": [],
      "stateMutability": "nonpayable",
      "type": "function"
    },
    {
      "inputs": [
        {
          "internalType": "uint256",
          "name": "_listingId",
          "type": "uint256"
        }
      ],
      "name": "cancelListing",
      "outputs": [],
      "stateMutability": "nonpayable",
      "type": "function"
    },
    {
      "inputs": [
        {
          "internalType": "uint256",
          "name": "_listingId",
          "type": "uint256"
        }
      ],
      "name": "getListingBids",
      "outputs": [
        {
          "internalType": "uint256[]",
          "name": "",
          "type": "uint256[]"
        }
      ],
      "stateMutability": "view",
      "type": "function",
      "constant": true
    }
  ],
  "bytecode": "0x608060405234801561001057600080fd5b50604051610ebf380380610ebf83398101604081905261002f91610081565b6001600081905580546001600160a01b039384166001600160a01b031991821617909155600280549290931691161790556100b4565b80516001600160a01b038116811461007c57600080fd5b919050565b6000806040838503121561009457600080fd5b61009d83610065565b91506100ab60208401610065565b90509250929050565b610dfc806100c36000396000f3fe6080604052600436106100a75760003560e01c80636c2c9c7d116100645780636c2c9c7d1461020357806390e467a1146102195780639979ef45146102465780639da0e1dd14610259578063a79123a914610279578063de74e57b1461029957600080fd5b806303f69354146100ac5780632b1fd58a146100d5578063305a67a8146100f75780634423c5f1146101175780634ec7fb81146101ab5780635c7460d6146101e3575b600080fd5b3480156100b857600080fd5b506100c260045481565b6040519081526020015b60405180910390f35b3480156100e157600080fd5b506100f56100f0366004610ca3565b610330565b005b34801561010357600080fd5b506100f5610112366004610ca3565b610601565b34801561012357600080fd5b50610174610132366004610ca3565b60066020526000908152604090208054600182015460028301546003840154600485015460059095015493946001600160a01b03909316939192909160ff1686565b604080519687526001600160a01b0390951660208701529385019290925260608401526080830152151560a082015260c0016100cc565b3480156101b757600080fd5b506001546101cb906001600160a01b031681565b6040516001600160a01b0390911681526020016100cc565b3480156101ef57600080fd5b506002546101cb906001600160a01b031681565b34801561020f57600080fd5b506100c260035481565b34801561022557600080fd5b50610239610234366004610ca3565b6106ca565b6040516100cc9190610cbc565b6100f5610254366004610ca3565b61072c565b34801561026557600080fd5b506100c2610274366004610d00565b6109d6565b34801561028557600080fd5b506100f5610294366004610d00565b610a07565b3480156102a557600080fd5b506102f96102b4366004610ca3565b600560208190526000918252604090912080546001820154600283015460038401546004850154949095015492946001600160a01b0390921693909260ff9091169086565b604080519687526001600160a01b0390951660208701529385019290925260608401521515608083015260a082015260c0016100cc565b610338610c4a565b600081815260066020908152604080832060028101548452600590925290912060018101546001600160a01b031633146103b95760405162461bcd60e51b815260206004820152601a60248201527f4f6e6c792073656c6c65722063616e206163636570742062696400000000000060448201526064015b60405180910390fd5b600481015460ff166103dd5760405162461bcd60e51b81526004016103b090610d22565b600582015460ff16156104295760405162461bcd60e51b8152602060048201526014602482015273109a5908185b1c9958591e481858d8d95c1d195960621b60448201526064016103b0565b6004818101805460ff1990811690915560058401805490911660019081179091558054818401549185015460028501546040516323b872dd60e01b81526001600160a01b03948516958101959095529083166024850152604484015216906323b872dd906064016020604051808303816000875af11580156104af573d6000803e3d6000fd5b505050506040513d601f19601f820116820180604052508101906104d39190610d51565b61051f5760405162461bcd60e51b815260206004820152601c60248201527f456e6572677920746f6b656e207472616e73666572206661696c65640000000060448201526064016103b0565b600181015460038301546040516000926001600160a01b031691908381818185875af1925050503d8060008114610572576040519150601f19603f3d011682016040523d82523d6000602084013e610577565b606091505b50509050806105c15760405162461bcd60e51b815260206004820152601660248201527511985a5b1959081d1bc81cd95b99081c185e5b595b9d60521b60448201526064016103b0565b600283015460405185907feeb046b305fcff3538cfdefcb3ce223663ef84836df9830a1de00bc00817631e90600090a35050506105fe6001600055565b50565b600081815260056020526040902060018101546001600160a01b0316331461066b5760405162461bcd60e51b815260206004820152601e60248201527f4f6e6c792073656c6c65722063616e2063616e63656c206c697374696e67000060448201526064016103b0565b600481015460ff1661068f5760405162461bcd60e51b81526004016103b090610d22565b60048101805460ff1916905560405182907f411aee90354c51b1b04cd563fcab2617142a9d50da19232d888547c8a1b7fd8a90600090a25050565b60008181526007602090815260409182902080548351818402810184019094528084526060939283018282801561072057602002820191906000526020600020905b81548152602001906001019080831161070c575b50505050509050919050565b610734610c4a565b600254604051631f5bdf5d60e01b81523360048201526001600160a01b0390911690631f5bdf5d90602401602060405180830381865afa15801561077c573d6000803e3d6000fd5b505050506040513d601f19601f820116820180604052508101906107a09190610d51565b6107e25760405162461bcd60e51b8152602060048201526013602482015272155cd95c881b9bdd081c9959da5cdd195c9959606a1b60448201526064016103b0565b6000818152600560205260409020600481015460ff166108145760405162461bcd60e51b81526004016103b090610d22565b60018101546001600160a01b031633036108645760405162461bcd60e51b815260206004820152601160248201527014d95b1b195c8818d85b9b9bdd08189a59607a1b60448201526064016103b0565b806003015481600201546108789190610d90565b3410156108c75760405162461bcd60e51b815260206004820152601760248201527f496e73756666696369656e742062696420616d6f756e7400000000000000000060448201526064016103b0565b600480549060006108d783610dad565b90915550506040805160c0810182526004805480835233602080850182815285870189815234606088018181524260808a01908152600060a08b01818152988152600687528b81209a518b5594516001808c0180546001600160a01b0319166001600160a01b0390931692909217909155935160028b0155905160038a0155518888015594516005909701805460ff191697151597909717909655888152600782528681208554815497880182559082529082902090950194909455915493519081529092859290917f6f7e354ea3ab5c288aea37fce29c603f9a98a3b040f6d8f32f10e192ec47ff6a910160405180910390a4506105fe6001600055565b600760205281600052604060002081815481106109f257600080fd5b90600052602060002001600091509150505481565b600254604051631f5bdf5d60e01b81523360048201526001600160a01b0390911690631f5bdf5d90602401602060405180830381865afa158015610a4f573d6000803e3d6000fd5b505050506040513d601f19601f82011682018060405250810190610a739190610d51565b610ab55760405162461bcd60e51b8152602060048201526013602482015272155cd95c881b9bdd081c9959da5cdd195c9959606a1b60448201526064016103b0565b60008211610b115760405162461bcd60e51b8152602060048201526024808201527f456e6572677920616d6f756e74206d75737420626520677265617465722074686044820152630616e20360e41b60648201526084016103b0565b60008111610b615760405162461bcd60e51b815260206004820152601c60248201527f5072696365206d7573742062652067726561746572207468616e20300000000060448201526064016103b0565b60038054906000610b7183610dad565b90915550506040805160c08101825260038054808352336020808501828152858701898152606087018981526001608089018181524260a08b0190815260009889526005808852988c90209a518b559451918a0180546001600160a01b0319166001600160a01b03909316929092179091559151600289015551878701555160048701805460ff19169115159190911790555194909201939093559054835186815291820185905291927f12dc294b81a709d694b1337a350a12a00076c19a77a25aab67a5f0c07e0f164d910160405180910390a35050565b600260005403610c9c5760405162461bcd60e51b815260206004820152601f60248201527f5265656e7472616e637947756172643a207265656e7472616e742063616c6c0060448201526064016103b0565b6002600055565b600060208284031215610cb557600080fd5b5035919050565b6020808252825182820181905260009190848201906040850190845b81811015610cf457835183529284019291840191600101610cd8565b50909695505050505050565b60008060408385031215610d1357600080fd5b50508035926020909101359150565b6020808252601590820152744c697374696e67206973206e6f742061637469766560581b604082015260600190565b600060208284031215610d6357600080fd5b81518015158114610d7357600080fd5b9392505050565b634e487b7160e01b600052601160045260246000fd5b8082028115828204841417610da757610da7610d7a565b92915050565b600060018201610dbf57610dbf610d7a565b506001019056fea26469706673582212203c8da219ec2e938b894171beab1c419d5682f331f3032593c5be4e4b184202bb64736f6c63430008130033",
  "immutableReferences": {},
  "source": "// SPDX-License-Identifier: MIT\npragma solidity ^0.8.0;\n\nimport \"./EnergyToken.sol\";\nimport \"./UserRegistry.sol\";\nimport \"@openzeppelin/contracts/security/ReentrancyGuard.sol\";\n\ncontract EnergyTradingPlatform is ReentrancyGuard {\n    struct EnergyListing {\n        uint256 id;\n        address seller;\n        uint256 energyAmount;\n        uint256 pricePerUnit;\n        bool isActive;\n        uint256 timestamp;\n    }\n\n    struct Bid {\n        uint256 id;\n        address buyer;\n        uint256 listingId;\n        uint256 bidAmount;\n        uint256 timestamp;\n        bool isAccepted;\n    }\n\n    EnergyToken public energyToken;\n    UserRegistry public userRegistry;\n    \n    uint256 public listingCounter;\n    uint256 public bidCounter;\n    mapping(uint256 => EnergyListing) public listings;\n    mapping(uint256 => Bid) public bids;\n    mapping(uint256 => uint256[]) public listingBids;\n\n    event ListingCreated(uint256 indexed listingId, address indexed seller, uint256 energyAmount, uint256 pricePerUnit);\n    event BidPlaced(uint256 indexed bidId, uint256 indexed listingId, address indexed buyer, uint256 bidAmount);\n    event BidAccepted(uint256 indexed bidId, uint256 indexed listingId);\n    event ListingCancelled(uint256 indexed listingId);\n\n    constructor(address _energyToken, address _userRegistry) {\n        energyToken = EnergyToken(_energyToken);\n        userRegistry = UserRegistry(_userRegistry);\n    }\n\n    function createListing(uint256 _energyAmount, uint256 _pricePerUnit) external {\n        require(userRegistry.isRegisteredUser(msg.sender), \"User not registered\");\n        require(_energyAmount > 0, \"Energy amount must be greater than 0\");\n        require(_pricePerUnit > 0, \"Price must be greater than 0\");\n\n        listingCounter++;\n        listings[listingCounter] = EnergyListing({\n            id: listingCounter,\n            seller: msg.sender,\n            energyAmount: _energyAmount,\n            pricePerUnit: _pricePerUnit,\n            isActive: true,\n            timestamp: block.timestamp\n        });\n\n        emit ListingCreated(listingCounter, msg.sender, _energyAmount, _pricePerUnit);\n    }\n\n    function placeBid(uint256 _listingId) external payable nonReentrant {\n        require(userRegistry.isRegisteredUser(msg.sender), \"User not registered\");\n        EnergyListing storage listing = listings[_listingId];\n        require(listing.isActive, \"Listing is not active\");\n        require(msg.sender != listing.seller, \"Seller cannot bid\");\n        require(msg.value >= listing.energyAmount * listing.pricePerUnit, \"Insufficient bid amount\");\n\n        bidCounter++;\n        bids[bidCounter] = Bid({\n            id: bidCounter,\n            buyer: msg.sender,\n            listingId: _listingId,\n            bidAmount: msg.value,\n            timestamp: block.timestamp,\n            isAccepted: false\n        });\n\n        listingBids[_listingId].push(bidCounter);\n        emit BidPlaced(bidCounter, _listingId, msg.sender, msg.value);\n    }\n\n    function acceptBid(uint256 _bidId) external nonReentrant {\n        Bid storage bid = bids[_bidId];\n        EnergyListing storage listing = listings[bid.listingId];\n        \n        require(msg.sender == listing.seller, \"Only seller can accept bid\");\n        require(listing.isActive, \"Listing is not active\");\n        require(!bid.isAccepted, \"Bid already accepted\");\n\n        listing.isActive = false;\n        bid.isAccepted = true;\n\n        // Transfer energy tokens from seller to buyer\n        require(energyToken.transferFrom(listing.seller, bid.buyer, listing.energyAmount), \"Energy token transfer failed\");\n        \n        // Transfer payment to seller\n        (bool sent, ) = payable(listing.seller).call{value: bid.bidAmount}(\"\");\n        require(sent, \"Failed to send payment\");\n\n        emit BidAccepted(_bidId, bid.listingId);\n    }\n\n    function cancelListing(uint256 _listingId) external {\n        EnergyListing storage listing = listings[_listingId];\n        require(msg.sender == listing.seller, \"Only seller can cancel listing\");\n        require(listing.isActive, \"Listing is not active\");\n\n        listing.isActive = false;\n        emit ListingCancelled(_listingId);\n    }\n\n    function getListingBids(uint256 _listingId) external view returns (uint256[] memory) {\n        return listingBids[_listingId];\n    }\n}",
  "sourcePath": "/Users/raakeshmj/Programming/enbergy/blockTruffle/contracts/EnergyTradingPlatform.sol",
  "compiler": {
    "name": "solc",
    "version": "0.8.19+commit.7dd6d404.Emscripten.clang"
  },
  "schemaVersion": "3.4.16",
  "updatedAt": "2025-04-15T15:32:14.112Z",
  "networkType": "ethereum",
  "devdoc": {
    "kind": "dev",
    "methods": {},
    "version": 1
  },
  "userdoc": {
    "kind": "user",
    "methods": {},
    "version": 1
  }
}