{
  "contractName": "UserRegistry",
  "abi": [
    {
      "anonymous": false,
      "inputs": [
        {
          "indexed": true,
          "internalType": "address",
          "name": "previousOwner",
          "type": "address"
        },
        {
          "indexed": true,
          "internalType": "address",
          "name": "newOwner",
          "type": "address"
        }
      ],
      "name": "OwnershipTransferred",
      "type": "event"
    },
    {
      "anonymous": false,
      "inputs": [
        {
          "indexed": true,
          "internalType": "address",
          "name": "userAddress",
          "type": "address"
        },
        {
          "indexed": false,
          "internalType": "string",
          "name": "name",
          "type": "string"
        },
        {
          "indexed": false,
          "internalType": "bool",
          "name": "isProducer",
          "type": "bool"
        },
        {
          "indexed": false,
          "internalType": "bool",
          "name": "isConsumer",
          "type": "bool"
        }
      ],
      "name": "UserRegistered",
      "type": "event"
    },
    {
      "anonymous": false,
      "inputs": [
        {
          "indexed": true,
          "internalType": "address",
          "name": "userAddress",
          "type": "address"
        },
        {
          "indexed": false,
          "internalType": "bool",
          "name": "isActive",
          "type": "bool"
        },
        {
          "indexed": false,
          "internalType": "uint256",
          "name": "reputation",
          "type": "uint256"
        }
      ],
      "name": "UserUpdated",
      "type": "event"
    },
    {
      "inputs": [],
      "name": "owner",
      "outputs": [
        {
          "internalType": "address",
          "name": "",
          "type": "address"
        }
      ],
      "stateMutability": "view",
      "type": "function",
      "constant": true
    },
    {
      "inputs": [],
      "name": "renounceOwnership",
      "outputs": [],
      "stateMutability": "nonpayable",
      "type": "function"
    },
    {
      "inputs": [
        {
          "internalType": "address",
          "name": "newOwner",
          "type": "address"
        }
      ],
      "name": "transferOwnership",
      "outputs": [],
      "stateMutability": "nonpayable",
      "type": "function"
    },
    {
      "inputs": [
        {
          "internalType": "uint256",
          "name": "",
          "type": "uint256"
        }
      ],
      "name": "userAddresses",
      "outputs": [
        {
          "internalType": "address",
          "name": "",
          "type": "address"
        }
      ],
      "stateMutability": "view",
      "type": "function",
      "constant": true
    },
    {
      "inputs": [
        {
          "internalType": "address",
          "name": "",
          "type": "address"
        }
      ],
      "name": "users",
      "outputs": [
        {
          "internalType": "string",
          "name": "name",
          "type": "string"
        },
        {
          "internalType": "bool",
          "name": "isProducer",
          "type": "bool"
        },
        {
          "internalType": "bool",
          "name": "isConsumer",
          "type": "bool"
        },
        {
          "internalType": "bool",
          "name": "isActive",
          "type": "bool"
        },
        {
          "internalType": "uint256",
          "name": "reputation",
          "type": "uint256"
        },
        {
          "internalType": "address",
          "name": "userAddress",
          "type": "address"
        }
      ],
      "stateMutability": "view",
      "type": "function",
      "constant": true
    },
    {
      "inputs": [
        {
          "internalType": "string",
          "name": "_name",
          "type": "string"
        },
        {
          "internalType": "bool",
          "name": "_isProducer",
          "type": "bool"
        },
        {
          "internalType": "bool",
          "name": "_isConsumer",
          "type": "bool"
        }
      ],
      "name": "registerUser",
      "outputs": [],
      "stateMutability": "nonpayable",
      "type": "function"
    },
    {
      "inputs": [
        {
          "internalType": "address",
          "name": "_userAddress",
          "type": "address"
        }
      ],
      "name": "isProducer",
      "outputs": [
        {
          "internalType": "bool",
          "name": "",
          "type": "bool"
        }
      ],
      "stateMutability": "view",
      "type": "function",
      "constant": true
    },
    {
      "inputs": [
        {
          "internalType": "address",
          "name": "_userAddress",
          "type": "address"
        }
      ],
      "name": "isConsumer",
      "outputs": [
        {
          "internalType": "bool",
          "name": "",
          "type": "bool"
        }
      ],
      "stateMutability": "view",
      "type": "function",
      "constant": true
    },
    {
      "inputs": [
        {
          "internalType": "address",
          "name": "_userAddress",
          "type": "address"
        }
      ],
      "name": "getUserInfo",
      "outputs": [
        {
          "components": [
            {
              "internalType": "string",
              "name": "name",
              "type": "string"
            },
            {
              "internalType": "bool",
              "name": "isProducer",
              "type": "bool"
            },
            {
              "internalType": "bool",
              "name": "isConsumer",
              "type": "bool"
            },
            {
              "internalType": "bool",
              "name": "isActive",
              "type": "bool"
            },
            {
              "internalType": "uint256",
              "name": "reputation",
              "type": "uint256"
            },
            {
              "internalType": "address",
              "name": "userAddress",
              "type": "address"
            }
          ],
          "internalType": "struct UserRegistry.User",
          "name": "",
          "type": "tuple"
        }
      ],
      "stateMutability": "view",
      "type": "function",
      "constant": true
    },
    {
      "inputs": [
        {
          "internalType": "address",
          "name": "_userAddress",
          "type": "address"
        }
      ],
      "name": "suspendUser",
      "outputs": [],
      "stateMutability": "nonpayable",
      "type": "function"
    },
    {
      "inputs": [
        {
          "internalType": "address",
          "name": "_userAddress",
          "type": "address"
        },
        {
          "internalType": "bool",
          "name": "_isActive",
          "type": "bool"
        }
      ],
      "name": "updateUserStatus",
      "outputs": [],
      "stateMutability": "nonpayable",
      "type": "function"
    },
    {
      "inputs": [
        {
          "internalType": "address",
          "name": "_userAddress",
          "type": "address"
        },
        {
          "internalType": "uint256",
          "name": "_reputation",
          "type": "uint256"
        }
      ],
      "name": "updateReputation",
      "outputs": [],
      "stateMutability": "nonpayable",
      "type": "function"
    },
    {
      "inputs": [
        {
          "internalType": "address",
          "name": "_userAddress",
          "type": "address"
        }
      ],
      "name": "getUser",
      "outputs": [
        {
          "components": [
            {
              "internalType": "string",
              "name": "name",
              "type": "string"
            },
            {
              "internalType": "bool",
              "name": "isProducer",
              "type": "bool"
            },
            {
              "internalType": "bool",
              "name": "isConsumer",
              "type": "bool"
            },
            {
              "internalType": "bool",
              "name": "isActive",
              "type": "bool"
            },
            {
              "internalType": "uint256",
              "name": "reputation",
              "type": "uint256"
            },
            {
              "internalType": "address",
              "name": "userAddress",
              "type": "address"
            }
          ],
          "internalType": "struct UserRegistry.User",
          "name": "",
          "type": "tuple"
        }
      ],
      "stateMutability": "view",
      "type": "function",
      "constant": true
    },
    {
      "inputs": [],
      "name": "getUserCount",
      "outputs": [
        {
          "internalType": "uint256",
          "name": "",
          "type": "uint256"
        }
      ],
      "stateMutability": "view",
      "type": "function",
      "constant": true
    },
    {
      "inputs": [
        {
          "internalType": "address",
          "name": "_userAddress",
          "type": "address"
        }
      ],
      "name": "isRegisteredUser",
      "outputs": [
        {
          "internalType": "bool",
          "name": "",
          "type": "bool"
        }
      ],
      "stateMutability": "view",
      "type": "function",
      "constant": true
    }
  ],
  "bytecode": "0x608060405234801561001057600080fd5b5061001a3361001f565b61006f565b600080546001600160a01b038381166001600160a01b0319831681178455604051919092169283917f8be0079c531659141344cd1fd0a4f28419497f9722a3daafe3b4186f6b6457e09190a35050565b610f758061007e6000396000f3fe608060405234801561001057600080fd5b50600436106100f55760003560e01c8063834ff73911610097578063f2fde38b11610066578063f2fde38b1461021a578063f55210221461022d578063f5c91a0814610240578063fa876b2e1461025357600080fd5b8063834ff739146101c05780638da5cb5b146101d3578063a87430ba146101e4578063b5cb15f71461020957600080fd5b8063502c9bd5116100d3578063502c9bd51461016d5780636386c1c7146101985780636f77926b14610198578063715018a6146101b857600080fd5b80630b4144b9146100fa5780631e153acb1461010f5780631f5bdf5d14610122575b600080fd5b61010d610108366004610b2c565b610266565b005b61010d61011d366004610b5f565b610328565b610158610130366004610b5f565b6001600160a01b03166000908152600160208190526040909120015462010000900460ff1690565b60405190151581526020015b60405180910390f35b61018061017b366004610b81565b6103cf565b6040516001600160a01b039091168152602001610164565b6101ab6101a6366004610b5f565b6103f9565b6040516101649190610be0565b61010d610531565b6101586101ce366004610b5f565b610545565b6000546001600160a01b0316610180565b6101f76101f2366004610b5f565b61059d565b60405161016496959493929190610c48565b600254604051908152602001610164565b61010d610228366004610b5f565b61066b565b61015861023b366004610b5f565b6106e4565b61010d61024e366004610c8d565b610733565b61010d610261366004610ccd565b610837565b61026e610a56565b6001600160a01b03828116600090815260016020526040902060030154166102b15760405162461bcd60e51b81526004016102a890610d9f565b60405180910390fd5b6001600160a01b038216600081815260016020818152604092839020918201805462ff0000191662010000871515908102919091179091556002909201548351928352908201527f163dfb1ea02b48d7a48782aaee4f108e99e9232110df99b94ae8117205927ad091015b60405180910390a25050565b610330610a56565b6001600160a01b038181166000908152600160205260409020600301541661036a5760405162461bcd60e51b81526004016102a890610d9f565b6001600160a01b0381166000818152600160208181526040808420928301805462ff0000191690556002909201548251938452908301527f163dfb1ea02b48d7a48782aaee4f108e99e9232110df99b94ae8117205927ad0910160405180910390a250565b600281815481106103df57600080fd5b6000918252602090912001546001600160a01b0316905081565b6040805160c081018252606080825260006020830181905292820183905281018290526080810182905260a08101919091526001600160a01b03821660009081526001602052604090819020815160c0810190925280548290829061045d90610dcc565b80601f016020809104026020016040519081016040528092919081815260200182805461048990610dcc565b80156104d65780601f106104ab576101008083540402835291602001916104d6565b820191906000526020600020905b8154815290600101906020018083116104b957829003601f168201915b5050509183525050600182015460ff808216151560208401526101008204811615156040840152620100009091041615156060820152600282015460808201526003909101546001600160a01b031660a09091015292915050565b610539610a56565b6105436000610ab0565b565b6001600160a01b038116600090815260016020819052604082200154610100900460ff16801561059757506001600160a01b0382166000908152600160208190526040909120015462010000900460ff165b92915050565b6001602052600090815260409020805481906105b890610dcc565b80601f01602080910402602001604051908101604052809291908181526020018280546105e490610dcc565b80156106315780601f1061060657610100808354040283529160200191610631565b820191906000526020600020905b81548152906001019060200180831161061457829003601f168201915b5050505060018301546002840154600390940154929360ff808316946101008404821694506201000090930416916001600160a01b031686565b610673610a56565b6001600160a01b0381166106d85760405162461bcd60e51b815260206004820152602660248201527f4f776e61626c653a206e6577206f776e657220697320746865207a65726f206160448201526564647265737360d01b60648201526084016102a8565b6106e181610ab0565b50565b6001600160a01b03811660009081526001602081905260408220015460ff1680156105975750506001600160a01b03166000908152600160208190526040909120015462010000900460ff1690565b61073b610a56565b6001600160a01b03828116600090815260016020526040902060030154166107755760405162461bcd60e51b81526004016102a890610d9f565b60648111156107d25760405162461bcd60e51b8152602060048201526024808201527f52657075746174696f6e206d757374206265206265747765656e203020616e646044820152630203130360e41b60648201526084016102a8565b6001600160a01b038216600081815260016020818152604092839020600281018690559091015482516201000090910460ff16151581529081018490527f163dfb1ea02b48d7a48782aaee4f108e99e9232110df99b94ae8117205927ad0910161031c565b336000908152600160208190526040909120015462010000900460ff16156108a15760405162461bcd60e51b815260206004820152601760248201527f5573657220616c7265616479207265676973746572656400000000000000000060448201526064016102a8565b81806108aa5750805b6109075760405162461bcd60e51b815260206004820152602860248201527f55736572206d757374206265206569746865722070726f6475636572206f722060448201526731b7b739bab6b2b960c11b60648201526084016102a8565b6040805160c08101825284815283151560208083019190915283151582840152600160608301819052606460808401523360a084018190526000908152915291909120815181906109589082610e55565b5060208201516001808301805460408087015160608801511515620100000262ff0000199115156101000261ff00199715159790971661ffff19909416939093179590951794909416179055608084015160028085019190915560a090940151600390930180546001600160a01b039094166001600160a01b0319948516179055835490810184556000939093527f405787fa12a823e0f2b7631cc41b3ba8828b3321ca811111fa75cd3aa3bb5ace90920180549091163390811790915590517fc86d5a8a29da35ee44dc8dd756b2b0bc5390594c6ce9802aac5c014f7c5eb64e90610a4990869086908690610f15565b60405180910390a2505050565b6000546001600160a01b031633146105435760405162461bcd60e51b815260206004820181905260248201527f4f776e61626c653a2063616c6c6572206973206e6f7420746865206f776e657260448201526064016102a8565b600080546001600160a01b038381166001600160a01b0319831681178455604051919092169283917f8be0079c531659141344cd1fd0a4f28419497f9722a3daafe3b4186f6b6457e09190a35050565b80356001600160a01b0381168114610b1757600080fd5b919050565b80358015158114610b1757600080fd5b60008060408385031215610b3f57600080fd5b610b4883610b00565b9150610b5660208401610b1c565b90509250929050565b600060208284031215610b7157600080fd5b610b7a82610b00565b9392505050565b600060208284031215610b9357600080fd5b5035919050565b6000815180845260005b81811015610bc057602081850181015186830182015201610ba4565b506000602082860101526020601f19601f83011685010191505092915050565b602081526000825160c06020840152610bfc60e0840182610b9a565b9050602084015115156040840152604084015115156060840152606084015115156080840152608084015160a084015260018060a01b0360a08501511660c08401528091505092915050565b60c081526000610c5b60c0830189610b9a565b9615156020830152509315156040850152911515606084015260808301526001600160a01b031660a090910152919050565b60008060408385031215610ca057600080fd5b610ca983610b00565b946020939093013593505050565b634e487b7160e01b600052604160045260246000fd5b600080600060608486031215610ce257600080fd5b833567ffffffffffffffff80821115610cfa57600080fd5b818601915086601f830112610d0e57600080fd5b813581811115610d2057610d20610cb7565b604051601f8201601f19908116603f01168101908382118183101715610d4857610d48610cb7565b81604052828152896020848701011115610d6157600080fd5b826020860160208301376000602084830101528097505050505050610d8860208501610b1c565b9150610d9660408501610b1c565b90509250925092565b602080825260139082015272155cd95c88191bd95cc81b9bdd08195e1a5cdd606a1b604082015260600190565b600181811c90821680610de057607f821691505b602082108103610e0057634e487b7160e01b600052602260045260246000fd5b50919050565b601f821115610e5057600081815260208120601f850160051c81016020861015610e2d5750805b601f850160051c820191505b81811015610e4c57828155600101610e39565b5050505b505050565b815167ffffffffffffffff811115610e6f57610e6f610cb7565b610e8381610e7d8454610dcc565b84610e06565b602080601f831160018114610eb85760008415610ea05750858301515b600019600386901b1c1916600185901b178555610e4c565b600085815260208120601f198616915b82811015610ee757888601518255948401946001909101908401610ec8565b5085821015610f055787850151600019600388901b60f8161c191681555b5050505050600190811b01905550565b606081526000610f286060830186610b9a565b93151560208301525090151560409091015291905056fea2646970667358221220ffe86e3160b4099df3b3feb78a4ede7e91dd18d643af166ac7e52f4f106ef9ec64736f6c63430008130033",
  "immutableReferences": {},
  "source": "// SPDX-License-Identifier: MIT\npragma solidity ^0.8.0;\n\nimport \"@openzeppelin/contracts/access/Ownable.sol\";\n\ncontract UserRegistry is Ownable {\n    struct User {\n        string name;\n        bool isProducer;\n        bool isConsumer;\n        bool isActive;\n        uint256 reputation;\n        address userAddress;\n    }\n\n    mapping(address => User) public users;\n    address[] public userAddresses;\n\n    event UserRegistered(address indexed userAddress, string name, bool isProducer, bool isConsumer);\n    event UserUpdated(address indexed userAddress, bool isActive, uint256 reputation);\n\n    function registerUser(\n        string memory _name,\n        bool _isProducer,\n        bool _isConsumer\n    ) public {\n        require(!users[msg.sender].isActive, \"User already registered\");\n        require(_isProducer || _isConsumer, \"User must be either producer or consumer\");\n\n        users[msg.sender] = User({\n            name: _name,\n            isProducer: _isProducer,\n            isConsumer: _isConsumer,\n            isActive: true,\n            reputation: 100,\n            userAddress: msg.sender\n        });\n\n        userAddresses.push(msg.sender);\n        emit UserRegistered(msg.sender, _name, _isProducer, _isConsumer);\n    }\n\n    function isProducer(address _userAddress) public view returns (bool) {\n        return users[_userAddress].isProducer && users[_userAddress].isActive;\n    }\n\n    function isConsumer(address _userAddress) public view returns (bool) {\n        return users[_userAddress].isConsumer && users[_userAddress].isActive;\n    }\n\n    function getUserInfo(address _userAddress) public view returns (User memory) {\n        return users[_userAddress];\n    }\n\n    function suspendUser(address _userAddress) public onlyOwner {\n        require(users[_userAddress].userAddress != address(0), \"User does not exist\");\n        users[_userAddress].isActive = false;\n        emit UserUpdated(_userAddress, false, users[_userAddress].reputation);\n    }\n\n    function updateUserStatus(address _userAddress, bool _isActive) public onlyOwner {\n        require(users[_userAddress].userAddress != address(0), \"User does not exist\");\n        users[_userAddress].isActive = _isActive;\n        emit UserUpdated(_userAddress, _isActive, users[_userAddress].reputation);\n    }\n\n    function updateReputation(address _userAddress, uint256 _reputation) public onlyOwner {\n        require(users[_userAddress].userAddress != address(0), \"User does not exist\");\n        require(_reputation <= 100, \"Reputation must be between 0 and 100\");\n        users[_userAddress].reputation = _reputation;\n        emit UserUpdated(_userAddress, users[_userAddress].isActive, _reputation);\n    }\n\n    function getUser(address _userAddress) public view returns (User memory) {\n        return users[_userAddress];\n    }\n\n    function getUserCount() public view returns (uint256) {\n        return userAddresses.length;\n    }\n\n    function isRegisteredUser(address _userAddress) public view returns (bool) {\n        return users[_userAddress].isActive;\n    }\n}",
  "sourcePath": "/Users/raakeshmj/Programming/enbergy/blockTruffle/contracts/UserRegistry.sol",
  "compiler": {
    "name": "solc",
    "version": "0.8.19+commit.7dd6d404.Emscripten.clang"
  },
  "schemaVersion": "3.4.16",
  "updatedAt": "2025-04-15T15:32:14.104Z",
  "networkType": "ethereum",
  "devdoc": {
    "kind": "dev",
    "methods": {
      "owner()": {
        "details": "Returns the address of the current owner."
      },
      "renounceOwnership()": {
        "details": "Leaves the contract without owner. It will not be possible to call `onlyOwner` functions. Can only be called by the current owner. NOTE: Renouncing ownership will leave the contract without an owner, thereby disabling any functionality that is only available to the owner."
      },
      "transferOwnership(address)": {
        "details": "Transfers ownership of the contract to a new account (`newOwner`). Can only be called by the current owner."
      }
    },
    "version": 1
  },
  "userdoc": {
    "kind": "user",
    "methods": {},
    "version": 1
  }
}